{
  "contractName": "Delance",
  "abi": [
    {
      "inputs": [
        {
          "internalType": "address payable",
          "name": "_freelancer",
          "type": "address"
        },
        {
          "internalType": "uint256",
          "name": "_deadline",
          "type": "uint256"
        },
        {
          "internalType": "uint256",
          "name": "_price",
          "type": "uint256"
        }
      ],
      "stateMutability": "nonpayable",
      "type": "constructor"
    },
    {
      "inputs": [],
      "name": "createdAt",
      "outputs": [
        {
          "internalType": "uint256",
          "name": "",
          "type": "uint256"
        }
      ],
      "stateMutability": "view",
      "type": "function"
    },
    {
      "inputs": [],
      "name": "deadline",
      "outputs": [
        {
          "internalType": "uint256",
          "name": "",
          "type": "uint256"
        }
      ],
      "stateMutability": "view",
      "type": "function"
    },
    {
      "inputs": [],
      "name": "employer",
      "outputs": [
        {
          "internalType": "address payable",
          "name": "",
          "type": "address"
        }
      ],
      "stateMutability": "view",
      "type": "function"
    },
    {
      "inputs": [],
      "name": "freelancer",
      "outputs": [
        {
          "internalType": "address payable",
          "name": "",
          "type": "address"
        }
      ],
      "stateMutability": "view",
      "type": "function"
    },
    {
      "inputs": [],
      "name": "price",
      "outputs": [
        {
          "internalType": "uint256",
          "name": "",
          "type": "uint256"
        }
      ],
      "stateMutability": "view",
      "type": "function"
    },
    {
      "inputs": [],
      "name": "remainingPayments",
      "outputs": [
        {
          "internalType": "uint256",
          "name": "",
          "type": "uint256"
        }
      ],
      "stateMutability": "view",
      "type": "function"
    },
    {
      "inputs": [],
      "name": "status",
      "outputs": [
        {
          "internalType": "enum Delance.Status",
          "name": "",
          "type": "uint8"
        }
      ],
      "stateMutability": "view",
      "type": "function"
    },
    {
      "stateMutability": "payable",
      "type": "receive"
    }
  ],
  "bytecode": "0x608060405234801561001057600080fd5b506040516103ea3803806103ea8339818101604052606081101561003357600080fd5b81019080805190602001909291908051906020019092919080519060200190929190505050336000806101000a81548173ffffffffffffffffffffffffffffffffffffffff021916908373ffffffffffffffffffffffffffffffffffffffff16021790555082600160006101000a81548173ffffffffffffffffffffffffffffffffffffffff021916908373ffffffffffffffffffffffffffffffffffffffff160217905550816002819055504260038190555080600481905550806005819055506002600660006101000a81548160ff0219169083600281111561011457fe5b02179055505050506102bf8061012b6000396000f3fe6080604052600436106100745760003560e01c8063a37dda2c1161004e578063a37dda2c1461010f578063ae200e7914610166578063cf09e0d0146101bd578063f8147c23146101e85761007b565b8063200d2ed21461008057806329dcb0cf146100b9578063a035b1fe146100e45761007b565b3661007b57005b600080fd5b34801561008c57600080fd5b50610095610213565b604051808260028111156100a557fe5b60ff16815260200191505060405180910390f35b3480156100c557600080fd5b506100ce610226565b6040518082815260200191505060405180910390f35b3480156100f057600080fd5b506100f961022c565b6040518082815260200191505060405180910390f35b34801561011b57600080fd5b50610124610232565b604051808273ffffffffffffffffffffffffffffffffffffffff1673ffffffffffffffffffffffffffffffffffffffff16815260200191505060405180910390f35b34801561017257600080fd5b5061017b610258565b604051808273ffffffffffffffffffffffffffffffffffffffff1673ffffffffffffffffffffffffffffffffffffffff16815260200191505060405180910390f35b3480156101c957600080fd5b506101d261027d565b6040518082815260200191505060405180910390f35b3480156101f457600080fd5b506101fd610283565b6040518082815260200191505060405180910390f35b600660009054906101000a900460ff1681565b60025481565b60045481565b600160009054906101000a900473ffffffffffffffffffffffffffffffffffffffff1681565b6000809054906101000a900473ffffffffffffffffffffffffffffffffffffffff1681565b60035481565b6005548156fea264697066735822122018a2f6811ae93ad756c5996af5a310b459c0e104288ed01eb752dc3022cfb02c64736f6c63430006090033",
  "immutableReferences": {},
  "source": "// SPDX-License-Identifier: MIT\npragma solidity 0.6.9;\n\ncontract Delance{\n    \n    enum Status {COMPLETED, CENCELED, PENDING}\n    \n    address payable public employer;\n    address payable public freelancer;\n    uint256 public deadline;\n    uint256 public createdAt;\n    uint256 public price;\n    uint256 public remainingPayments;\n    Status public status;\n    \n    \n    constructor(\n        address payable _freelancer,\n        uint256 _deadline,\n        uint256 _price\n    ) public {\n        employer = msg.sender;\n        freelancer = _freelancer;\n        deadline = _deadline;\n        createdAt = now;\n        price = _price;\n        remainingPayments = _price;\n        status = Status.PENDING;\n    }\n    \n    \n    \n    \n    receive() external payable {}\n    \n    \n    \n    \n    \n    \n}",
  "sourcePath": "/Applications/MAMP/htdocs/Solidity/Delance/contracts/Delance.sol",
  "compiler": {
    "name": "solc",
    "version": "0.6.9+commit.3e3065ac.Emscripten.clang"
  },
  "schemaVersion": "3.2.0",
  "updatedAt": "2020-06-19T10:29:18.256Z",
  "devdoc": {
    "methods": {}
  },
  "userdoc": {
    "methods": {}
  }
}