{
  "contractName": "Project",
  "abi": [
    {
      "inputs": [
        {
          "internalType": "address payable",
          "name": "_employer",
          "type": "address"
        },
        {
          "internalType": "address payable",
          "name": "_freelancer",
          "type": "address"
        },
        {
          "internalType": "uint256",
          "name": "_deadline",
          "type": "uint256"
        },
        {
          "internalType": "uint256",
          "name": "_price",
          "type": "uint256"
        }
      ],
      "stateMutability": "nonpayable",
      "type": "constructor"
    },
    {
      "anonymous": false,
      "inputs": [
        {
          "indexed": false,
          "internalType": "uint256",
          "name": "remainingPayments",
          "type": "uint256"
        },
        {
          "indexed": false,
          "internalType": "enum Project.Status",
          "name": "status",
          "type": "uint8"
        }
      ],
      "name": "ProjectCanceled",
      "type": "event"
    },
    {
      "anonymous": false,
      "inputs": [
        {
          "indexed": false,
          "internalType": "address",
          "name": "employer",
          "type": "address"
        },
        {
          "indexed": false,
          "internalType": "address",
          "name": "freelancer",
          "type": "address"
        },
        {
          "indexed": false,
          "internalType": "uint256",
          "name": "amount",
          "type": "uint256"
        },
        {
          "indexed": false,
          "internalType": "enum Project.Status",
          "name": "status",
          "type": "uint8"
        }
      ],
      "name": "ProjectCompleted",
      "type": "event"
    },
    {
      "anonymous": false,
      "inputs": [
        {
          "indexed": false,
          "internalType": "string",
          "name": "title",
          "type": "string"
        },
        {
          "indexed": false,
          "internalType": "uint256",
          "name": "amount",
          "type": "uint256"
        },
        {
          "indexed": false,
          "internalType": "bool",
          "name": "locked",
          "type": "bool"
        },
        {
          "indexed": false,
          "internalType": "bool",
          "name": "paid",
          "type": "bool"
        }
      ],
      "name": "RequestCreated",
      "type": "event"
    },
    {
      "anonymous": false,
      "inputs": [
        {
          "indexed": false,
          "internalType": "address",
          "name": "receiver",
          "type": "address"
        },
        {
          "indexed": false,
          "internalType": "uint256",
          "name": "amount",
          "type": "uint256"
        }
      ],
      "name": "RequestPaid",
      "type": "event"
    },
    {
      "anonymous": false,
      "inputs": [
        {
          "indexed": false,
          "internalType": "bool",
          "name": "locked",
          "type": "bool"
        }
      ],
      "name": "RequestUnlocked",
      "type": "event"
    },
    {
      "inputs": [],
      "name": "createdAt",
      "outputs": [
        {
          "internalType": "uint256",
          "name": "",
          "type": "uint256"
        }
      ],
      "stateMutability": "view",
      "type": "function"
    },
    {
      "inputs": [],
      "name": "deadline",
      "outputs": [
        {
          "internalType": "uint256",
          "name": "",
          "type": "uint256"
        }
      ],
      "stateMutability": "view",
      "type": "function"
    },
    {
      "inputs": [],
      "name": "employer",
      "outputs": [
        {
          "internalType": "address payable",
          "name": "",
          "type": "address"
        }
      ],
      "stateMutability": "view",
      "type": "function"
    },
    {
      "inputs": [],
      "name": "freelancer",
      "outputs": [
        {
          "internalType": "address payable",
          "name": "",
          "type": "address"
        }
      ],
      "stateMutability": "view",
      "type": "function"
    },
    {
      "inputs": [],
      "name": "price",
      "outputs": [
        {
          "internalType": "uint256",
          "name": "",
          "type": "uint256"
        }
      ],
      "stateMutability": "view",
      "type": "function"
    },
    {
      "inputs": [],
      "name": "remainingPayments",
      "outputs": [
        {
          "internalType": "uint256",
          "name": "",
          "type": "uint256"
        }
      ],
      "stateMutability": "view",
      "type": "function"
    },
    {
      "inputs": [
        {
          "internalType": "uint256",
          "name": "",
          "type": "uint256"
        }
      ],
      "name": "requests",
      "outputs": [
        {
          "internalType": "string",
          "name": "title",
          "type": "string"
        },
        {
          "internalType": "uint256",
          "name": "amount",
          "type": "uint256"
        },
        {
          "internalType": "bool",
          "name": "locked",
          "type": "bool"
        },
        {
          "internalType": "bool",
          "name": "paid",
          "type": "bool"
        }
      ],
      "stateMutability": "view",
      "type": "function"
    },
    {
      "inputs": [],
      "name": "status",
      "outputs": [
        {
          "internalType": "enum Project.Status",
          "name": "",
          "type": "uint8"
        }
      ],
      "stateMutability": "view",
      "type": "function"
    },
    {
      "stateMutability": "payable",
      "type": "receive"
    },
    {
      "inputs": [],
      "name": "getBalance",
      "outputs": [
        {
          "internalType": "uint256",
          "name": "",
          "type": "uint256"
        }
      ],
      "stateMutability": "view",
      "type": "function"
    },
    {
      "inputs": [
        {
          "internalType": "string",
          "name": "_title",
          "type": "string"
        },
        {
          "internalType": "uint256",
          "name": "_amount",
          "type": "uint256"
        }
      ],
      "name": "createRequest",
      "outputs": [],
      "stateMutability": "nonpayable",
      "type": "function"
    },
    {
      "inputs": [
        {
          "internalType": "uint256",
          "name": "_index",
          "type": "uint256"
        }
      ],
      "name": "unlockRequest",
      "outputs": [],
      "stateMutability": "nonpayable",
      "type": "function"
    },
    {
      "inputs": [
        {
          "internalType": "uint256",
          "name": "_index",
          "type": "uint256"
        }
      ],
      "name": "payRequest",
      "outputs": [],
      "stateMutability": "nonpayable",
      "type": "function"
    },
    {
      "inputs": [],
      "name": "completeProject",
      "outputs": [],
      "stateMutability": "nonpayable",
      "type": "function"
    },
    {
      "inputs": [],
      "name": "cancelProject",
      "outputs": [],
      "stateMutability": "nonpayable",
      "type": "function"
    },
    {
      "inputs": [
        {
          "internalType": "uint256",
          "name": "amount",
          "type": "uint256"
        }
      ],
      "name": "increaseDeadline",
      "outputs": [],
      "stateMutability": "nonpayable",
      "type": "function"
    }
  ],
  "bytecode": "0x608060405234801561001057600080fd5b506040516118723803806118728339818101604052608081101561003357600080fd5b810190808051906020019092919080519060200190929190805190602001909291908051906020019092919050505083600160006101000a81548173ffffffffffffffffffffffffffffffffffffffff021916908373ffffffffffffffffffffffffffffffffffffffff16021790555082600260006101000a81548173ffffffffffffffffffffffffffffffffffffffff021916908373ffffffffffffffffffffffffffffffffffffffff160217905550816003819055504260048190555080600581905550806006819055506002600760006101000a81548160ff0219169083600281111561011f57fe5b02179055505050505061173b806101376000396000f3fe6080604052600436106100ec5760003560e01c806381d12c581161008a578063ae200e7911610059578063ae200e7914610474578063cf09e0d0146104cb578063f8147c23146104f6578063fc0e973914610521576100f3565b806381d12c581461024f578063a035b1fe14610320578063a37dda2c1461034b578063aa6e90c0146103a2576100f3565b8063200d2ed2116100c6578063200d2ed21461017557806329dcb0cf146101ae57806363d4dd3b146101d9578063736e66b914610214576100f3565b806312065fe0146100f85780631adff0ee146101235780631cc198671461013a576100f3565b366100f357005b600080fd5b34801561010457600080fd5b5061010d610538565b6040518082815260200191505060405180910390f35b34801561012f57600080fd5b50610138610540565b005b34801561014657600080fd5b506101736004803603602081101561015d57600080fd5b810190808035906020019092919050505061079a565b005b34801561018157600080fd5b5061018a610a06565b6040518082600281111561019a57fe5b60ff16815260200191505060405180910390f35b3480156101ba57600080fd5b506101c3610a19565b6040518082815260200191505060405180910390f35b3480156101e557600080fd5b50610212600480360360208110156101fc57600080fd5b8101908080359060200190929190505050610a1f565b005b34801561022057600080fd5b5061024d6004803603602081101561023757600080fd5b8101908080359060200190929190505050610d1b565b005b34801561025b57600080fd5b506102886004803603602081101561027257600080fd5b8101908080359060200190929190505050610e8b565b60405180806020018581526020018415151515815260200183151515158152602001828103825286818151815260200191508051906020019080838360005b838110156102e25780820151818401526020810190506102c7565b50505050905090810190601f16801561030f5780820380516001836020036101000a031916815260200191505b509550505050505060405180910390f35b34801561032c57600080fd5b50610335610f7a565b6040518082815260200191505060405180910390f35b34801561035757600080fd5b50610360610f80565b604051808273ffffffffffffffffffffffffffffffffffffffff1673ffffffffffffffffffffffffffffffffffffffff16815260200191505060405180910390f35b3480156103ae57600080fd5b50610472600480360360408110156103c557600080fd5b81019080803590602001906401000000008111156103e257600080fd5b8201836020820111156103f457600080fd5b8035906020019184600183028401116401000000008311171561041657600080fd5b91908080601f016020809104026020016040519081016040528093929190818152602001838380828437600081840152601f19601f82011690508083019250505050505050919291929080359060200190929190505050610fa6565b005b34801561048057600080fd5b5061048961130a565b604051808273ffffffffffffffffffffffffffffffffffffffff1673ffffffffffffffffffffffffffffffffffffffff16815260200191505060405180910390f35b3480156104d757600080fd5b506104e0611330565b6040518082815260200191505060405180910390f35b34801561050257600080fd5b5061050b611336565b6040518082815260200191505060405180910390f35b34801561052d57600080fd5b5061053661133c565b005b600047905090565b600160009054906101000a900473ffffffffffffffffffffffffffffffffffffffff1673ffffffffffffffffffffffffffffffffffffffff163373ffffffffffffffffffffffffffffffffffffffff1614610603576040517f08c379a000000000000000000000000000000000000000000000000000000000815260040180806020018281038252600e8152602001807f4f6e6c7920456d706c6f7965722100000000000000000000000000000000000081525060200191505060405180910390fd5b60028081111561060f57fe5b600760009054906101000a900460ff16600281111561062a57fe5b1461069d576040517f08c379a000000000000000000000000000000000000000000000000000000000815260040180806020018281038252600d8152602001807f4f6e6c792070656e64696e67210000000000000000000000000000000000000081525060200191505060405180910390fd5b60035442116106ab57600080fd5b6001600760006101000a81548160ff021916908360028111156106ca57fe5b0217905550600160009054906101000a900473ffffffffffffffffffffffffffffffffffffffff1673ffffffffffffffffffffffffffffffffffffffff166108fc6006549081150290604051600060405180830381858888f19350505050158015610739573d6000803e3d6000fd5b507fd1f3c760ebefdac9332e65aa0dfdc7fc2dff580148e9bfe693ded277f96e07d9600654600760009054906101000a900460ff166040518083815260200182600281111561078457fe5b60ff1681526020019250505060405180910390a1565b600160009054906101000a900473ffffffffffffffffffffffffffffffffffffffff1673ffffffffffffffffffffffffffffffffffffffff163373ffffffffffffffffffffffffffffffffffffffff161461085d576040517f08c379a000000000000000000000000000000000000000000000000000000000815260040180806020018281038252600e8152602001807f4f6e6c7920456d706c6f7965722100000000000000000000000000000000000081525060200191505060405180910390fd5b60028081111561086957fe5b600760009054906101000a900460ff16600281111561088457fe5b146108f7576040517f08c379a000000000000000000000000000000000000000000000000000000000815260040180806020018281038252600d8152602001807f4f6e6c792070656e64696e67210000000000000000000000000000000000000081525060200191505060405180910390fd5b600080828154811061090557fe5b906000526020600020906003020190508060020160009054906101000a900460ff16610999576040517f08c379a00000000000000000000000000000000000000000000000000000000081526004018080602001828103825260108152602001807f416c726561647920756e6c6f636b65640000000000000000000000000000000081525060200191505060405180910390fd5b60008160020160006101000a81548160ff0219169083151502179055507f6917bd44e44c6202f36553b9769ed68f429767151c48c8015c03d6f15d7e4e458160020160009054906101000a900460ff16604051808215151515815260200191505060405180910390a15050565b600760009054906101000a900460ff1681565b60035481565b600260009054906101000a900473ffffffffffffffffffffffffffffffffffffffff1673ffffffffffffffffffffffffffffffffffffffff163373ffffffffffffffffffffffffffffffffffffffff1614610ae2576040517f08c379a00000000000000000000000000000000000000000000000000000000081526004018080602001828103825260108152602001807f4f6e6c7920467265656c616e636572210000000000000000000000000000000081525060200191505060405180910390fd5b6000808281548110610af057fe5b906000526020600020906003020190508060020160009054906101000a900460ff1615610b85576040517f08c379a00000000000000000000000000000000000000000000000000000000081526004018080602001828103825260118152602001807f52657175657374206973206c6f636b656400000000000000000000000000000081525060200191505060405180910390fd5b8060020160019054906101000a900460ff1615610c0a576040517f08c379a000000000000000000000000000000000000000000000000000000000815260040180806020018281038252600c8152602001807f416c72656164792070616964000000000000000000000000000000000000000081525060200191505060405180910390fd5b8060010154600660008282540392505081905550600260009054906101000a900473ffffffffffffffffffffffffffffffffffffffff1673ffffffffffffffffffffffffffffffffffffffff166108fc82600101549081150290604051600060405180830381858888f19350505050158015610c8a573d6000803e3d6000fd5b5060018160020160016101000a81548160ff0219169083151502179055507f8d3c4c2bd7fcd40b8e44b6e7331c1b5e1fd5cd51c8a6ff8a2051bc8280b1d88c338260010154604051808373ffffffffffffffffffffffffffffffffffffffff1673ffffffffffffffffffffffffffffffffffffffff1681526020018281526020019250505060405180910390a15050565b600160009054906101000a900473ffffffffffffffffffffffffffffffffffffffff1673ffffffffffffffffffffffffffffffffffffffff163373ffffffffffffffffffffffffffffffffffffffff1614610dde576040517f08c379a000000000000000000000000000000000000000000000000000000000815260040180806020018281038252600e8152602001807f4f6e6c7920456d706c6f7965722100000000000000000000000000000000000081525060200191505060405180910390fd5b600280811115610dea57fe5b600760009054906101000a900460ff166002811115610e0557fe5b14610e78576040517f08c379a000000000000000000000000000000000000000000000000000000000815260040180806020018281038252600d8152602001807f4f6e6c792070656e64696e67210000000000000000000000000000000000000081525060200191505060405180910390fd5b8060036000828254019250508190555050565b60008181548110610e9857fe5b9060005260206000209060030201600091509050806000018054600181600116156101000203166002900480601f016020809104026020016040519081016040528092919081815260200182805460018160011615610100020316600290048015610f445780601f10610f1957610100808354040283529160200191610f44565b820191906000526020600020905b815481529060010190602001808311610f2757829003601f168201915b5050505050908060010154908060020160009054906101000a900460ff16908060020160019054906101000a900460ff16905084565b60055481565b600260009054906101000a900473ffffffffffffffffffffffffffffffffffffffff1681565b600260009054906101000a900473ffffffffffffffffffffffffffffffffffffffff1673ffffffffffffffffffffffffffffffffffffffff163373ffffffffffffffffffffffffffffffffffffffff1614611069576040517f08c379a00000000000000000000000000000000000000000000000000000000081526004018080602001828103825260108152602001807f4f6e6c7920467265656c616e636572210000000000000000000000000000000081525060200191505060405180910390fd5b60028081111561107557fe5b600760009054906101000a900460ff16600281111561109057fe5b14611103576040517f08c379a000000000000000000000000000000000000000000000000000000000815260040180806020018281038252600d8152602001807f4f6e6c792070656e64696e67210000000000000000000000000000000000000081525060200191505060405180910390fd5b60065481111561117b576040517f08c379a000000000000000000000000000000000000000000000000000000000815260040180806020018281038252600c8152602001807f4869676820616d6f756e7421000000000000000000000000000000000000000081525060200191505060405180910390fd5b611183611634565b6040518060800160405280848152602001838152602001600115158152602001600015158152509050600081908060018154018082558091505060019003906000526020600020906003020160009091909190915060008201518160000190805190602001906111f4929190611660565b506020820151816001015560408201518160020160006101000a81548160ff02191690831515021790555060608201518160020160016101000a81548160ff02191690831515021790555050507f42b4ffa6b26ed6a5ced111f7f6726ffca1ed194bf62f22f151829f2670514b8f83838360400151846060015160405180806020018581526020018415151515815260200183151515158152602001828103825286818151815260200191508051906020019080838360005b838110156112c85780820151818401526020810190506112ad565b50505050905090810190601f1680156112f55780820380516001836020036101000a031916815260200191505b509550505050505060405180910390a1505050565b600160009054906101000a900473ffffffffffffffffffffffffffffffffffffffff1681565b60045481565b60065481565b600160009054906101000a900473ffffffffffffffffffffffffffffffffffffffff1673ffffffffffffffffffffffffffffffffffffffff163373ffffffffffffffffffffffffffffffffffffffff16146113ff576040517f08c379a000000000000000000000000000000000000000000000000000000000815260040180806020018281038252600e8152602001807f4f6e6c7920456d706c6f7965722100000000000000000000000000000000000081525060200191505060405180910390fd5b60028081111561140b57fe5b600760009054906101000a900460ff16600281111561142657fe5b14611499576040517f08c379a000000000000000000000000000000000000000000000000000000000815260040180806020018281038252600d8152602001807f4f6e6c792070656e64696e67210000000000000000000000000000000000000081525060200191505060405180910390fd5b6000600760006101000a81548160ff021916908360028111156114b857fe5b0217905550600260009054906101000a900473ffffffffffffffffffffffffffffffffffffffff1673ffffffffffffffffffffffffffffffffffffffff166108fc6006549081150290604051600060405180830381858888f19350505050158015611527573d6000803e3d6000fd5b507f1df88114d883145bbd23dbb1724d4a60b5f1f93969aae53bb1d6eedb071603cc600160009054906101000a900473ffffffffffffffffffffffffffffffffffffffff16600260009054906101000a900473ffffffffffffffffffffffffffffffffffffffff16600654600760009054906101000a900460ff16604051808573ffffffffffffffffffffffffffffffffffffffff1673ffffffffffffffffffffffffffffffffffffffff1681526020018473ffffffffffffffffffffffffffffffffffffffff1673ffffffffffffffffffffffffffffffffffffffff16815260200183815260200182600281111561161c57fe5b60ff16815260200194505050505060405180910390a1565b604051806080016040528060608152602001600081526020016000151581526020016000151581525090565b828054600181600116156101000203166002900490600052602060002090601f016020900481019282601f106116a157805160ff19168380011785556116cf565b828001600101855582156116cf579182015b828111156116ce5782518255916020019190600101906116b3565b5b5090506116dc91906116e0565b5090565b61170291905b808211156116fe5760008160009055506001016116e6565b5090565b9056fea2646970667358221220f210d863188c125a332b27dc1f760155d508f47899510ef8ce9ea332e84734bf64736f6c63430006090033",
  "immutableReferences": {},
  "source": "// SPDX-License-Identifier: MIT\npragma solidity 0.6.9;\n\ncontract Project {\n    enum Status {COMPLETED, CENCELED, PENDING}\n\n    struct Request {\n        string title;\n        uint256 amount;\n        bool locked;\n        bool paid;\n    }\n\n    Request[] public requests;\n\n    address payable public employer;\n    address payable public freelancer;\n    uint256 public deadline;\n    uint256 public createdAt;\n    uint256 public price;\n    uint256 public remainingPayments;\n    Status public status;\n\n    event RequestCreated(string title, uint256 amount, bool locked, bool paid);\n    event RequestUnlocked(bool locked);\n    event RequestPaid(address receiver, uint256 amount);\n    event ProjectCompleted(\n        address employer,\n        address freelancer,\n        uint256 amount,\n        Status status\n    );\n    event ProjectCanceled(uint256 remainingPayments, Status status);\n\n    constructor(\n        address payable _employer,\n        address payable _freelancer,\n        uint256 _deadline,\n        uint256 _price\n    ) public {\n        employer = _employer;\n        freelancer = _freelancer;\n        deadline = _deadline;\n        createdAt = now;\n        price = _price;\n        remainingPayments = _price;\n        status = Status.PENDING;\n    }\n\n    modifier onlyEmployer() {\n        require(msg.sender == employer, \"Only Employer!\");\n        _;\n    }\n\n    modifier onlyFreelancer() {\n        require(msg.sender == freelancer, \"Only Freelancer!\");\n        _;\n    }\n\n    modifier onlyPendingProject() {\n        require(status == Status.PENDING, \"Only pending!\");\n        _;\n    }\n\n    function getBalance() public view returns (uint256) {\n        return address(this).balance;\n    }\n\n    function createRequest(string memory _title, uint256 _amount)\n        public\n        onlyFreelancer\n        onlyPendingProject\n    {\n        require(_amount <= remainingPayments, \"High amount!\");\n\n        Request memory request = Request({\n            title: _title,\n            amount: _amount,\n            locked: true,\n            paid: false\n        });\n\n        requests.push(request);\n\n        emit RequestCreated(_title, _amount, request.locked, request.paid);\n    }\n\n    function unlockRequest(uint256 _index)\n        public\n        onlyEmployer\n        onlyPendingProject\n    {\n        Request storage request = requests[_index];\n        require(request.locked, \"Already unlocked\");\n        request.locked = false;\n\n        emit RequestUnlocked(request.locked);\n    }\n\n    function payRequest(uint256 _index) public onlyFreelancer {\n        Request storage request = requests[_index];\n        require(!request.locked, \"Request is locked\");\n        require(!request.paid, \"Already paid\");\n\n        remainingPayments -= request.amount;\n\n        freelancer.transfer(request.amount);\n        request.paid = true;\n\n        emit RequestPaid(msg.sender, request.amount);\n    }\n\n    function completeProject() public onlyEmployer onlyPendingProject {\n        status = Status.COMPLETED;\n        freelancer.transfer(remainingPayments);\n\n        emit ProjectCompleted(employer, freelancer, remainingPayments, status);\n    }\n\n    function cancelProject() public onlyEmployer onlyPendingProject {\n        require(now > deadline);\n        status = Status.CENCELED;\n        employer.transfer(remainingPayments);\n\n        emit ProjectCanceled(remainingPayments, status);\n    }\n\n    function increaseDeadline(uint256 amount)\n        public\n        onlyEmployer\n        onlyPendingProject\n    {\n        deadline += amount;\n    }\n\n    receive() external payable {}\n}\n",
  "sourcePath": "/Applications/MAMP/htdocs/Solidity/Delance/contracts/Project.sol",
  "compiler": {
    "name": "solc",
    "version": "0.6.9+commit.3e3065ac.Emscripten.clang"
  },
  "schemaVersion": "3.3.2",
  "updatedAt": "2020-11-29T09:00:33.492Z",
  "devdoc": {
    "methods": {}
  },
  "userdoc": {
    "methods": {}
  }
}